:040000006F20806489
:10000400000000000000000098240000002500000B
:100014000000000046260000000000000000000070
:1000240046260000462600000000000000000000F4
:1000340046260000000000004626000000000000E4
:1000440046260000462600004626000046260000FC
:1000540046260000462600004626000046260000EC
:1000640046260000462600004626000046260000DC
:1000740046260000462600004626000046260000CC
:1000840046260000462600004626000046260000BC
:100094000212000046260000462600004626000004
:1000A400462600004626000046260000462600009C
:1000B4009A2400004626000046260000462600003A
:1000C400462600004626000046260000462600007C
:1000D400462600004626000046260000462600006C
:1000E4004626000046260000F611000046260000C1
:0C00F400462600004626000046260000BC
:10010000397101436EC619A0397141536AC866CA74
:1001100062CC5ECE19A0397101535AD056D252D456
:100120004ED64AD826DA22DC06DE330161408282CE
:1001300041114AC026C222C406C68282B24D410184
:10014000024D924C224CB24B4101024B924A224A40
:10015000B2494101024992442244B24041018280A5
:100160003D432A876373C3029377F700BDEFADE584
:10017000937606FF3D8ABA960CC34CC30CC74CC796
:100180004107E36BD7FE11E28280B306C3408A06C3
:100190009702000096966780A6002307B700A30683
:1001A000B7002306B700A305B7002305B700A304D3
:1001B000B7002304B700A303B7002303B700A302CB
:1001C000B7002302B700A301B7002301B700A300C3
:1001D000B7002300B700828093F5F50F9396850052
:1001E000D58D93960501D58D61B79396270097021B
:1001F000000096968682E78086FA9680C1171D8F4A
:100200003E96E374C3F8A5B7EFF29FF211E583A71A
:10021000818305479AAB3DBF83A701849C438297A6
:1002200003A581832905C5BFEFF29FF011E583A7E0
:10023000818305479AAB39BF83A701849C47829786
:1002400003A581833105C5BF03A7818301E58947E4
:100250001EAB8280EFF2DFED239A01821C23138410
:10026000418393F7F70795E718379377070299C308
:1002700089471CA0137707041C2011CB93E71700B4
:100280001CA083A701849C4B82972285E1B5F99B32
:10029000C5BF854613854183E38AD7FE894601455C
:1002A000E396D7FE5833B7660040938606C093772F
:1002B000F7008A07B69762079C4361876359070076
:1002C00093F707034147E39EE7FA854755BF0D675C
:1002D000F98F0567CDBFEFF21FE483A481833E8AC7
:1002E000822829E8982491476316F704138701832D
:1002F00014438547639BF602B767004083A707C591
:10030000B73600208906C207C183B697860723A0A7
:100310000700930700032394F18423200700114969
:1003200083A78183238427010DB5C1472394F184DA
:100330001D49FDB7DE28114963F38700094963F3BE
:1003400087003E849C4C4204418022858297AA8A81
:100350000145EF0030552286AA855685EF00103200
:10036000A2850145EF00B0579E280D67818F9EA89A
:10037000BE283E94930700032394F184A2A82393FC
:10038000E18479BF83A7818383C61181B83309458E
:1003900063EFE600B42381EED62391EAEFF25FD952
:1003A000B8A783A70184DC438297014565B38280A7
:1003B000EFF21FD883A7818303A7C1834111AC3318
:1003C000184FC833029783A78183B82705C72AC669
:1003D00015E1D82305E3BC2391EF83A70184DC4713
:1003E000829783A781833245D833B8B7B833D8A76B
:1003F00041018DB30945EDBF83A78183942393F613
:10040000F60781EA98371377F7FD98B701473A85E1
:10041000828009460947E39CC6FEB623EDFAD42341
:10042000FDF6EFF2FFD0D03337670040130707C067
:100430001375F6F7131425003A946206144061868A
:100440006355060493F6060383C501810947637C5F
:10045000B50295CABC2785CB1C40635B060293F7A7
:1004600007034147639CE7001374F50F2285EF00F3
:10047000503C930500032285EF00702783A7018479
:10048000DC4B829701473A85F1B10D67F98E6DBF5C
:10049000C164FD140D67E58FF98F0567E390E7FEF2
:1004A0001DEDB707002083C54708EF0030451C400D
:1004B00071771307F7F8F98FC2070D67C183B98FFA
:1004C000617713070708D98FC207C1831CC08D66E7
:1004D0001840658F758FE303D7FA1CC0D5BFEF00B6
:1004E00010321C4071771307F7F8F98FC2070D67B8
:1004F000C183B98F617713070708D98FC207C183FA
:100500001CC08D661840658F758FE309D7F61CC037
:10051000D5BF03A68183B7670040938707C05432D5
:1005200093F5F6F713972500BA97E2069843E1860C
:1005300063DE06041377070303C80181094563F6E8
:1005400005092E22D9E151C3382641C3EFF25FBE1F
:10055000984363D20604E5769386F6FB758F4207CF
:100560004183E1761347070193860608558F4207BA
:10057000418398C34146944393F60603639BC600A8
:1005800083A701849C4F82970145E9B60D65698F69
:1005900065B798C3CDB7F1769386F6F8758F4207A5
:1005A00085664183358FE17693860608558F42072D
:1005B0004183416698C37D160D6585659443F18E30
:1005C000E98EE38FB6FA98C3D5BF8280EFF25FB6AB
:1005D00003A781831C3793E707021CB783A7018415
:1005E000DC4F82970145BDB603A781833E2B11E501
:1005F000CA211D8D0AAB0145828088413E958280CB
:10060000EFF21FB3B707002083C547080145EF008D
:10061000F02E83A781838827A1476318F50005671B
:100620002393E18441472394E1845D15133515003C
:1006300015B6EFF2FFAF03A9818337660040832729
:1006400006C583468900254741116385E604416458
:100650001307F4FFB7360020F98F9106B697860787
:100660008043798C060432941C202300F9001C304E
:10067000A300F9004A20EF00B0322311A9000A2498
:1006800003A98183EF00D0312312A9005A2483A744
:100690008183FAA383A78183054798A7FA23803330
:1006A0006319070C98231377F70755E3254763155C
:1006B000E400C93925E12DA015476316E40403873A
:1006C000370063590700A14703A781831CA70D3F8B
:1006D000410149B4B82365FBDA2375F7BC27E5F778
:1006E000B767004083A707C5373700200907C2074F
:1006F000C183BA97860723A007001307000323943A
:10070000E1849947D1B70D476315E402B433054737
:10071000638DE60083A7C1832285DC4B82970D475A
:10072000A547E303E5FA4DDD79BFDE23E5F7793D23
:1007300051B70547E310E4FEB833E31D87FCDA2325
:1007400071FB9C3793F70702F1D77D31A5B7854739
:100750006317F700AD47E31FF4FA9939A1BF894643
:10076000E31AD7FAE303F4FE8D47E315F4FA5533A1
:1007700091B719476319E40298231377F70771EBD0
:10078000BC23854603A7C1836395D7005C4FF1C3A3
:1007900089A089466394D7001C53D5BF8D46639AC0
:1007A000D70A5C53EDB761E8BA2345E7D843C17671
:1007B0009386F60F758FB7060200631CD70898233F
:1007C0001377F70705EFDE23C9E7B7070000938724
:1007D000872403A781830145231907001CCF829733
:1007E000014583A78183C166FD169A2B630FD70647
:1007F00089466303D50069EF21478DA88546631EAE
:10080000D70003A7C183C8338145184F029731E150
:1008100083A78183BC27D5FB2DA88946631BD702FC
:10082000D833B7660040938606C01376F700931757
:100830002600B6979C4393168701E18663DA060289
:1008400093F7070383C601816375D6001377070703
:1008500079D303A7818383A7C18308339C4B8297F5
:100860008D47E310F5F883A78183254798A785B5C1
:100870008D66F58FC1BF2147631BE4009C2393F76E
:10088000F707E1FBB70700009387872099B729474F
:10089000E311E4FC982385461377F707E31BD7FAA7
:1008A000B82745DBBA2355F7D843C1769386F60FB0
:1008B000758FC166E31FD7F803A7C183C83381458D
:1008C000184F029759F5B70700009387872211B791
:1008D0008386070063D1060483A6C183EE2303C683
:1008E000C6022EC6324593160601C1826377E50023
:1008F00032479AABD6ABC532D9BBE37DB7FE637541
:10090000D70023A80182FDB73367C70265F7054604
:1009100023A8C182C5B70D4798A70D672393E1842B
:100920007DB3EFF24FFF03A48183A1441C241387FE
:10093000E7FF1377D70F2DC71387D7FF1377D70F8D
:1009400049EF1C4C85CB0628B9C05A286373970021
:10095000BA84C204C180268582971E28AA890145CF
:10096000858F1EA83E28A6973EA8992FAA85268681
:100970004E853D231E2881CF0D6781450145239378
:10098000E184EF00C075130700032394E1841E285F
:10099000562803A7818363EBD7008D471CA7042744
:1009A00083A7818384A7A9396FF02FFA99C395474C
:1009B000F5B799471CA7B767004083A707C5B736A7
:1009C00000208906C207C183B697860723A00700C7
:1009D000930600032394D184D9B71D47A144E39122
:1009E000E7FC83A7C183DC4782975DBF03C3018116
:1009F00037660040C1650568A1680147130606C057
:100A0000FD151308F8F093880808636967001365FB
:100A10000508B767004023A6A7C482809316270065
:100A2000B2969C42ED8FB3F70701D98FB3E7170158
:100A30009CC20507D9BFEFF2AFEF83A7818394274C
:100A40001387E6FF1377D70F01EFEFF0DF8883A757
:100A50008183982783A7818398A75D366FF08FEFF6
:100A600019462147E398C6FE94331547639CE60078
:100A700098231377F70719E7A8338D3F83A70184DD
:100A80009C53829783A7C1839C4782972147D9B7FC
:100A90008280EFF2EFE99387018923ACF182094765
:100AA00098A7370700209306870523AED182B707A2
:100AB00000209387870A23A0F184832787058297E4
:100AC0006FF04FE9EFF24FE44111370A0020B70A07
:100AD0000020E17923170100130A0A02938ACA034E
:100AE00093890908B765004083A745C41397070198
:100AF0004183239CE184139707016357071683D72B
:100B000081853A84BD8B238BF182938605C06396E1
:100B1000073003A705C093876184420741839AA3E6
:100B20009A2393868184137707039AA29A238D666A
:100B30002166758F9AA303A705C0A5679387F7FB66
:100B40007D8F83A705C0B1669386F6F8F58F896619
:100B5000B58F1347070293160701130606085D8F2A
:100B6000518FC18223A0E5C033E736014207938449
:100B700061841389818437660040930500024183B4
:100B8000832606C093F606036393B60EB3E73701D8
:100B9000C166C20737660040FD160D658965C183D1
:100BA000032706C0130406C0758F698F6314B70C42
:100BB00083D78185C18BE1EB1C40A5691387F9F0D0
:100BC000F98F1CC08D3D18401440B1679387F7F82A
:100BD000F58F96209389F9FB337737011396360109
:100BE000635406008566B58F9620139626016354DC
:100BF00006008966B58F83560900C18A99C21347DA
:100C000007018356090093F6060299C213470702AB
:100C1000216693160701130606085D8F518F37660C
:100C200000402320E6C06177C18213070708558F73
:100C300042074183832606C08355090093F60603C5
:100C4000639DB602617713070708D98FC166C20793
:100C500037660040FD160D65C183032706C08E2050
:100C6000758F698F631EB70041016FF06FCD232030
:100C7000E6C039B72320F6C025B72320E6C05DBF04
:100C80002320F6C0D9BF1C40856BC207C1837C8777
:100C90003C87139747016350070C1C401387FBF8F0
:100CA000F98F1CC0EFF0FF981840A5679387F7FBFA
:100CB00014407D8FB1679387F7F8F58F96201396D0
:100CC000360163540600B3C77701962013962601B8
:100CD000635406008966B58F83560900C18A99C29C
:100CE000134707018356090093F6060299C213477A
:100CF0000702216693160701130606085D8F518FC0
:100D0000376600402320E6C06177C18213070708D9
:100D1000558F42074183832606C08355090093F609
:100D200006036397B602617713070708D98FC16678
:100D3000C20737660040FD160D65C183032706C054
:100D40008E20758F698FE301B7F22320F6C0FDB7BF
:100D50002320E6C0C9B73C87C207C187E3D407D8C0
:100D60001C401387FBF8F98F1CC0653E1840A5672F
:100D70009387F7FB14407D8FB1679387F7F8F58F62
:100D800096201396360163540600B3C77701962068
:100D900013962601635406008966B58F83560900B1
:100DA000C18A99C2134707018356090093F60602C8
:100DB00099C2134707022166931607011306060816
:100DC0005D8F518F376600402320E6C06177C18276
:100DD00013070708558F42074183832606C08355B2
:100DE000090093F606036397B602617713070708B5
:100DF000D98FC166C20737660040FD160D65C183F5
:100E0000032706C08E20758F698FE30FB7E4232078
:100E1000F6C0FDB72320E6C0C9B713972700369761
:100E20001443C206C18274873487C206C18663DD5B
:100E30000600FD1714438A070566D6971306F6F8D1
:100E40009C43F18E14C382973C8793F70708E38B8A
:100E500007C883C76183B7660040938606C01397AF
:100E600027003697FD1714438A07D2972566130685
:100E7000F6F09C43F18E14C38297ADB1B7370020D2
:100E80000506BE950586860511E282801C31182173
:100E90009105A207D98F239EF5FE09057D16EDB7B2
:100EA000B73700200506BE950586860511E28280CB
:100EB0009C4109057D16231FF5FE9105C5BF61996B
:100EC00042054181B767004023A8A7C48280B76765
:100ED0000040938707C00A053E951C4165771307BC
:100EE000F798F98FDD8DC205C1810CC18280B7678B
:100EF0000040938707C00A053E951C41657713079C
:100F0000F7FBF98FC20713F70501C18319C393C714
:100F1000070113F7050219C393C707026177130787
:100F20000708D98FC207C1831CC118411377070373
:100F3000E31CB7FE8280B7670040938707C00A05AD
:100F40003E951C4171771307F7F8F98FC207139785
:100F50003501C183635407000567B98F13972501D5
:100F6000635407000967B98F617713070708D98FA2
:100F7000C207C183C1661CC1FD160D661841758F7D
:100F8000718F6313B70082801CC1CDBFB76700406B
:100F9000938707C00A053E951C4171771307F7F840
:100FA000F98FC2070D67C183B98F617713070708EF
:100FB000D98FC207C183C1661CC1FD160D661841D9
:100FC000758F718F6313C70082801CC1CDBFB76757
:100FD0000040938707C00A053E951C41056713072B
:100FE000F7E0F98F617713070708D98FC207C1832C
:100FF0001CC18280EFF2CF93D93F6FF0AF95B767F6
:101000000040938707C00A053E951441C1671387C6
:10101000F7FF9397160163DD07001C41F98F056701
:101020001307F7F0F98F316713070708D98F1CC131
:101030008280B7670040938707C00A053E951C4130
:1010400093F7070491CF1C4141677D17F98F05671E
:101050001307F7F0F98F21671307070CD98F1CC10D
:101060008280B767004083A707C50E058581C20748
:10107000C1833E95B73700203E95060586050CC115
:101080008280B767004083A707C50E058581C20728
:10109000C1833E95B737002091073E95060586052A
:1010A0000CC18280B767004083A707C50E05C20741
:1010B000C1833E95B73700203E9506050A21828000
:1010C000B767004083A707C50E05C207C1833E95D9
:1010D000B737002091073E9506050A218280B76741
:1010E000004083A707C50E05C207C1833E95B737E9
:1010F000002089073E9506050CC18280B767004035
:1011000083A707C513173500C207C183BA973737BE
:1011100000201907BA971307E00386076373B70423
:1011200013D75500FD8981E57D17420741832A07C2
:10113000A166558F98C30DE5B707002083C7470800
:101140001307E0036376F70213D75700FD8B81E79F
:101150007D17420741832A07E1775D8F2396E1845B
:10116000828013D71500858991C105072A07D9B751
:1011700013D71700858B91C305072A07C5B7B76733
:10118000004083A707C50E05C207C1833E95B73748
:10119000002099073E95060508411375F53F8280AA
:1011A000935785001375F50F22055D8D8280376793
:1011B0000040F177232207C4938707F02392F1843C
:1011C000B167938707F02320F7C401458280EFE2DF
:1011D0003FF632849374F507268542042E894180B8
:1011E000D1352286AA854A8551392685A285C53DF5
:1011F00001456FE03FF637050400EF100063730010
:101200002030612C73002030EFE29FF20111680062
:1012100002C602C802CA02CC02CEEF10F006324764
:10122000B74795089387074009456300F702B7E77A
:10123000B8059387078005456309F700B777DC0297
:10124000938707C06315F7000145EF1050028545ED
:1012500037058000EF10F01205616FE0BFEFEFE29D
:101260003FED3745000013054545EF2000130D47BE
:1012700023A2E1866FE01FEEEFE29FEB374500000F
:1012800013050547EF20601103C7A18911C7154752
:1012900023A2E1866FE01FEC0547DDBFEFE25FE9C7
:1012A000011137050400EF104058B707040005444A
:1012B0003EC80808C1473ECC22CE02CAEF104050BB
:1012C0009307401228007C8422C623050100EF10FA
:1012D000E0739307A00328007C84EF10207305615E
:1012E0006FE05FE7EFE2DFE4AA842E8411458545D5
:1012F000EF105007B1CCB766004083A706C4416722
:101300007517F98F23A0F6C4B717014003A74780CC
:10131000B716F0FFFD16758F23A2E78003A7C780DD
:10132000F9769386F67F758F23A6E78003A747801B
:10133000B7460400558F23A2E78037470240832732
:10134000078021C893E727002320F7806FE09FE004
:1013500037670040832707C4B716F0FFFD1693E7F1
:101360002700C207C1832320F7C4B717014003A792
:101370004780758F23A2E78003A7C780F9769386FD
:10138000F67F758F23A6E78003A74780B736030053
:1013900055B7F59B55BF8280EFE2FFD7094593848F
:1013A000C14CF13B83C984009C342A890945A207BA
:1013B000B3E937013133AA859A091385C10C4A86EE
:1013C0004E95F93C98249C34A207D98F8607137751
:1013D000F90F13598900A6974209F42713590901F7
:1013E000F8A7F837A387270198249C349424A207F0
:1013F000D98F8507C207C18313F7F70F98A4A1837C
:1014000098349CB49C249834BD4622075D8F938702
:10141000C14C63F8E6009827238407009837A3841B
:101420000700D427D837D0272207558F0507420752
:1014300041839376F70FD4A72183D437D8B7D42725
:10144000D8372207558FB54663F7E6000547A38CCA
:10145000E7026FE09FCF0945153EE5BF2385018474
:101460009387C14C238A07028280EFE27FCC8D47AD
:101470006313F5029384A184802011EC13053008D6
:10148000B9338547930500030D459CA0EFF03FA6B7
:1014900022856FE03FCC0544E5BFEFE27FC93768A6
:1014A0000040032708C5C1651385F5FF83D6C184B5
:1014B000B7370020698F13866700329706071843F5
:1014C000938505C00111F98D638CD500832708C56C
:1014D00093F606C0E98FB29786079843D98E94C3D6
:1014E000B766004083A746C413878185C207C183BE
:1014F0001EA31A2383D74184138481857D8F13779C
:10150000072009CF41671307F7DF23A2E6C49386BC
:10151000E184982205071377F70F98A21A20F98F14
:10152000C207C18763D40700EFF0CFD91E2003D7CD
:101530004184F98F93F7074089CFC1679387F7BF3D
:10154000376700402322F7C4B707002083A7C705E9
:1015500082971A2083D741847D8F9316270163D801
:1015600006003967B76600407D1723A2E6C41A203B
:10157000F98F13973701635A0700BD67376700403B
:10158000FD172322F7C40145292503D741841E20D6
:10159000F98F13974701635E070083A74181638F2B
:1015A000070E2923BD67376700409387F77F232203
:1015B000F7C41E2003D74184F98F93F70710E1CFBA
:1015C000C167376700409386F7EF2322D7C403260D
:1015D00087C4938601859315060163DA050A904254
:1015E000050690C28C420D466375B60A032607C4F1
:1015F000FD17218A59EE032607C4938541857D8E08
:101600003765004090C1138741850146130305C02B
:10161000A1489315260033886500032808000010B0
:10162000A2953378F80023A005FF0506E31316FF03
:1016300010431366160010C310437D8E2320C5C4CB
:101640001043799A10C31843F98F2320F5C43767E4
:101650000040832747C493F70740E5DFC1679387BE
:10166000F7BF37650040C1652322F7C4130505C0E5
:101670008147FD1521481397270010103A9603263D
:1016800006FE2A9785076D8E10C3E39607FF23A0F9
:1016900006001D45FD2905616FE0DFAB0945D52931
:1016A00011B783C7A18981C7154723A2E18682802C
:1016B000114723A2E1868280828091E5854733B578
:1016C000A700060582800945828011E583A78183F2
:1016D0001D479AAB8280138561508280EFE25FA53F
:1016E000ED376FE03FA703A78183930610020945FA
:1016F0001C2393F7F707639CD70214336384F60225
:10170000930700026395F602B71700009387C76D31
:10171000EFE21FA21CCF2319070001458297014564
:101720006FE05FA3B71700009387A76CD5B78280DF
:1017300003A781839306100201451C3318231377F6
:10174000F707631AD7009387E7FD93F7F70F05456F
:101750003335F5000605828003A7818393061002C6
:101760001C2393F7F707639DD700183393070002F4
:101770006318F700EFE2DF9BEF00D01F6FE09F9D43
:101780008280EFE2FF9A83A7818323850700D52C0F
:10179000B7670040856637660040938707C0938629
:1017A000F6F0930506C298439107758F23AEE7FEC6
:1017B000E39BB7FE9307F00F2322F6C4EFF03F9FA1
:1017C0008145014523A20186EFF0DFB15145EF10BD
:1017D000406385450545EFF0FFB06FE0BF97EFE24E
:1017E0003F9511670347374983A78183014598B720
:1017F00023950700EFF0AFEC930500200145EFF0D3
:101800000FEDC1450145EFF08FEE93050004014552
:10181000EFF03F87930500080145EFF09F840145F5
:10182000EFF04FFDB707002083C547080145EFF0F3
:10183000FF8C0145EFF08FF537670040032607C0A6
:10184000C1679386F7FF9317160163DF07008327AD
:1018500007C0F58F85669386F6F0F58FB16693869F
:101860000608D58F2320F7C037670040832707C0BD
:1018700093F7070485C3832707C0C166FD16F58F5C
:1018800085669386F6F0F58FA1669386060CD58F54
:101890002320F7C0930500600545EFF04FE3930563
:1018A00000020545EFF0AFE49305000C0545EFF0AD
:1018B0004FFB81450545EFF00FE837670040832770
:1018C00047C093F7070485C3832747C0C166FD1649
:1018D000F58F85669386F6F0F58FA1669386060CE4
:1018E000D58F2322F7C037670040032647C0C16762
:1018F0009386F7FF9317160163DF0700832747C01E
:10190000F58F85669386F6F0F58FB16693860608A7
:10191000D58F2322F7C081450945EFF04FDB814584
:101920000945EFF0CFDC930500100945EFF06FF5A6
:10193000930500040945EFF06FFC8D650945EFF054
:101940008FDF37670040032687C0C1679386F7FFA4
:101950009317160163DF0700832787C0F58F85661D
:101960009386F6F0F58FB16693860608D58F23240B
:10197000F7C037670040832787C093F7070485C304
:10198000832787C0C166FD16F58F85669386F6F0BE
:10199000F58FA1669386060CD58F2324F7C0814569
:1019A0000D45EFF0CFD2930500020D45EFF02FD497
:1019B000930500140D45EFF0CFEA81450D45EFF09A
:1019C0008FD7376700408327C7C093F7070485C3C5
:1019D0008327C7C0C166FD16F58F85669386F6F02E
:1019E000F58FA1669386060CD58F2326F7C037673F
:1019F00000400326C7C0C1679386F7FF93171601FF
:101A000063DF07008327C7C0F58F85669386F6F0EE
:101A1000F58FB16693860608D58F2326F7C001455A
:101A2000EFE0DFFC23850184054723A2E1866FE018
:101A30006FF2EFE2EFEF93858180EFE0FFBA6FE0A6
:101A40006FF1EFE2EFEEB705002093850515EFE0AB
:101A5000BFB96FE02FF083A78183AC33914763EE6A
:101A6000B700EFE2EFECB7070020938787088E05F9
:101A7000BE95EFE07FB76FE0EFED01458280828099
:101A80008280B7670040054723A0E7C423A007C4AE
:101A9000096723A207C4130707C02392E1840967DB
:101AA000130707C023A0E7C401458280EFE24FE897
:101AB000B767004083A707C4376700404168C20783
:101AC000C1838146130307C07D189385C18AA1484D
:101AD000139626003305660008412E968506337559
:101AE000050108C2E39616FF93E607402320D7C4FA
:101AF00093E61740F99BC207C1832320D7C493E61E
:101B000007402320D7C4B766004003A746C4137715
:101B1000074065DF41671307F7BF23A2E6C44168AA
:101B2000376700408146130307C07D18A14813960C
:101B300026003385C50008411A96850633750501D0
:101B400008C2E39616FF93E787402320F7C4832754
:101B500007C4C207C18393E747002320F7C4EFF00F
:101B60000FF06FE02FDFEFE2AFDC37640040832738
:101B700004C4C207C183ED9BC207C1832320F4C400
:101B8000EFF08FEFB167938707F02320F4C46FE085
:101B90006FDCEFE2EFD99D471384C1856303F50045
:101BA00008C01C401547636DF70011678A071307CB
:101BB0008751BA979C43828783A7818681E76537DF
:101BC000994711A095471CC039A0713F91471CC08F
:101BD000054723A4E1866FE0EFD789475CA08D47D6
:101BE000DDB75C20FD1793F7F70F5CA05C2093F73F
:101BF000F70FF5F39147C1BF37670040832707C44C
:101C0000C207C18393E707012320F7C495471CC08F
:101C1000A9475CA0C9B75C20FD1793F7F70F5CA03C
:101C20005C2093F7F70FC5FB37670040832707C495
:101C3000C207C183BD9BC207C1832320F7C4994754
:101C40001CC023A4018641BFEFE28FCE41119567EE
:101C50009387A75A48876C0011460D457C86A307D9
:101C60000100EFF09F8041016FE0CFCEEFE24FCC5B
:101C7000411195679387A75A4887CC8711466C0016
:101C80000D457C86EFF06FFE41016FE0AFCCEFE2D7
:101C90002FCA81450145EFF0EFE4EFF02FE0B7E701
:101CA00000E0414723A2E7180F100000214723A2BC
:101CB000E7180F100000056723A2E7180F100000B7
:101CC0009307800873B007800F1000008145370527
:101CD0008000EF00106B81450545EF00906A81455B
:101CE0001165EF003068B767000882976FE08FC614
:101CF0008D4763F8B71218219307A00A6313F712F0
:101D0000183193075005631EF710EFE2CFC01D474F
:101D10003C21834935000144637FB700583140219D
:101D20002207418F60214204418F60316204598C47
:101D3000376700083A9485462386D1860947AA84E6
:101D4000638AE7066369F70005476384E702930542
:101D5000F00F3E8599A80D476383E70C1147E39880
:101D6000E7FE1145D53513052003EF10800905372F
:101D700015A0B7A7FFF7A297296763F6E702856466
:101D8000EF00502BA294114963988400EF00302C8F
:101D900005455D3D6FE06FBB2285EF00B02F630806
:101DA0002501EF00D02A85450545C935E5B713045F
:101DB0000410D9BF9387790063D1B706B7670008CD
:101DC0006365F404B38789003707010863FFE702FE
:101DD000C209930485000149EF00D02593D9090178
:101DE000114A63663901EF00902609455DB73387D4
:101DF00024011C330C2333052401A207DD8DEF00E1
:101E0000F02C63074501EF0090248545094571BF1B
:101E10000909420913590901E9B78945C5BF0D45AB
:101E20008DBF8280EFE2CFB085451145EF00905322
:101E300085451165EF00F05485450545EF00705468
:101E400085450545EF00305001456FE0AFB0EFE24A
:101E50002FAE41113705004002C202C42316010013
:101E6000EF00D05783A7818137470F00130707245E
:101E7000B3D7E7024C003705004023130100FD17DC
:101E80007C82930730063EC4EF00105D8545370520
:101E90000040EF0030650546854537050040EF00FE
:101EA0005063B7E700E0056723A2E71085453705D3
:101EB0000040EF00906041016FE0CFA9EFE2AFA5D5
:101EC000371401407971AA8A2E891305048093057D
:101ED000002032C602D002D202D402D602CA02CCFC
:101EE00002CEEF0010318D44130A0020C1494C0886
:101EF00013050480231A410126CC4ECEEF0050205A
:101F0000374701408357C7804C0813050480C20738
:101F1000C183CD9BC207C1832316F780930700407E
:101F2000FC82930780043ECEEF00901DE1474C08F1
:101F3000130504803ECE231A410126CCEF00501C2D
:101F4000E1774C0813050480FC8226CC4ECEEF00CE
:101F5000301B854756D02312010232466319F9041B
:101F60008D672313F1028547631BF6049307006016
:101F70002314F10285672312F10237440140B1476F
:101F80000C10130504802315F10223160102EF0043
:101F900030561305048093050004EF0070638545F7
:101FA00013050480EF00305F45616FE00F9A8947A9
:101FB0006314F900896775B7231301026DB7894768
:101FC0006315F6009307004065B72314010275B747
:101FD0001387C14C231007002311070023120700A9
:101FE00023030700F94674B32314070023150700E1
:101FF000231607009387C14C0147414693161700EB
:10200000BE96239706000507E31AC7FE238707023B
:102010002398070223990702238A0702239B0702BA
:10202000238C0702A38C070223AA018623AC018616
:1020300015C5238D0702130720FCA38DE702054772
:10204000238EE702A38E0702238F0702A38F0702C6
:1020500021472380E7047947A380E7048280EFE2E9
:102060002F8D79712A842E89B28481451306C0028E
:102070004800EFE0EF8E29E43704024013054404E2
:10208000A12DB7470140938747803EC2C1473EC656
:10209000930700083ECC4C008567130544044AC4EE
:1020A00026C802CA02CE02D002D23ED402D6D92518
:1020B000854513054404EF00606F45616FE08F892B
:1020C0003704024013058405012DB747014093876B
:1020D00047803EC2930700083ECC930700023ED2E1
:1020E0004C008567130584054AC402C626C802CA87
:1020F00002CE02D03ED402D6B52D85451305840507
:102100005DBFEFE24F813744014041112A89AE891A
:10211000328A1305048001469305000436C6B704CD
:102120000240EF00B04813854404814541251385E2
:1021300084058145A52DB246D2854E853686BD3BA8
:1021400001469385C10C0145193F0566B70500207E
:10215000130606809385C52105451137054693056D
:10216000000413050480EF0070444A859535410151
:102170006FD0BFFDEFD2DFFB9387C14C03C7D703FE
:1021800083C6C70383C5B70303C6A703C206620796
:102190003697329703C6E70383C6F703A205BA95BD
:1021A000014585376FD01FFBEFD29FF89387C14C55
:1021B00083C7E70293F7F70FC1E71384C14C5E248E
:1021C000C207C183B5CF1E38C207C18389EF3E2441
:1021D0008607A297FE27C207C1831EB83E249A072E
:1021E000C207C1833EB82A380E389387C10C3E958A
:1021F000EFF01FB03E243D478607A29723970700C4
:102200003E248507C207C1833EA43E246374F700C1
:10221000231504005E240547FD17C207C1835EA491
:10222000231804028347940393F7F70F639AE70098
:102230005A2463E7E7000945EFE05FD5A30C0402E9
:102240006FD05FF1EFD23FEDB7E700E0414723A247
:10225000E7180F100000214723A2E7180F10000015
:10226000B7070240F84F9387418798C31386818749
:1022700010429C431384C14C6301F604938641874A
:102280001387818710439C4263F2C7161C43904218
:10229000918F9442C207C18314C356200567130768
:1022A0000780BE96635CD7144E20374500001305A7
:1022B0000553EF00507D23030400B7E700E04147DA
:1022C00023A2E710214723A2E7105E20C207C183A3
:1022D000D5CB8347440393F7F70F639C071246203F
:1022E0009307F003C204C18063E097127C2078302A
:1022F00063EFE7103A208567938707803387E740CD
:10230000635797002620B3849740C204C180BDC89C
:10231000B7E700E0414723A2E7180F10000021476C
:1023200023A2E7180F1000008547230AF402231B9D
:1023300004022E20B70700209387C721BE9526866A
:102340000D45EFF08F925E201307F07F858FC20757
:10235000C1835EA03E20A697C207C1833EA03E2057
:102360006374F700231104009384048081E485479B
:10237000230CF402B7E700E0414723A2E71021470E
:1023800023A2E7108347840393F7F70FB1CF834766
:10239000440393F7F70FA9EB7E3813077025637595
:1023A000F704B7E400E0C14923A234190F1000007C
:1023B000214923A224190F1000008547230AF402A3
:1023C000231B04022E20B70700209387C721014654
:1023D000BE950D45EFF06F89230A0402230C040219
:1023E00023A2341123A224116FD03FD68C421C4368
:1023F000056613060680B2978D8F61BD5A20BA9785
:10240000C207C1835EA045BD93040004E5B58144C5
:10241000D5B57A38BD679387F7A5E3F5E7F6230AC4
:10242000040223850184B9BFEFD29FD00545E12B7B
:1024300071645922EF00901A13050420EF00D01F99
:1024400083A58181374500001305C553EF00B063B4
:10245000BD2CAA85374500001305C554EF00B062B6
:10246000374500001305C555EF003073EFF09F9B13
:10247000EFF0FF9D81460146930504200545EFF0EE
:102480005FC8EFE07FD8EFE0CFE0EFE03FE1EFF0B3
:102490007FDBEFF07FD1E5BF01A01387C14C7C2328
:1024A000850793F7F70F7CA383466703834777037A
:1024B00003466703A207D58F8507C207C18393F63A
:1024C000F70F230BD702A18383467703A30BF702F1
:1024D0001387C1871C23A546850793F7F70F63E988
:1024E000F6001CA3B707004079579AAB7300203061
:1024F0002300070083A70187850723A8F186DDB79E
:10250000B707EFBE37E700E0938707083CC701A095
:10251000B71702409843B706FFF01367170098C338
:10252000D843758FD8C39843B706F7FEFD16758F4D
:1025300098C39843B706FCFFFD16758F98C3D84320
:10254000B70601FFFD16758FD8C337079F0098C7E0
:10255000B746024003A706801367070123A0E68061
:10256000D843B706C1FFFD16D8C3D843D8C3D84354
:1025700013670740D8C3D843758FD8C3D843B7066D
:102580002800558FD8C39843B7060001558F98C3CC
:10259000984393166700E3DD06FED843B716024062
:1025A000719BD8C3D84313672700D8C32147DC42A7
:1025B000B18BE39EE7FE8280B7160240DC421146F3
:1025C000B18B138781816385C70021466388C70269
:1025D000B7177A00938707201CC3B7170240DC4364
:1025E000918393F6F700B70700209387C70CB6973F
:1025F00094231C43B3D7D7001CC38280DC42D4424F
:102600004166C983BD8BF18E890745466393C70038
:10261000C94781EEB746024083A60680C18A89CEAB
:10262000B7167A009386062021A8B7160240D44236
:102630001396E600E35606FEB7163D009386069015
:10264000B387D70251BF01A097E1FF1F938181306B
:10265000173100201301019B172500001305050BFE
:1026600097E5FF1F9385059A1386018363FAC500DA
:102670008322050023A0550011059105E3EAC5FE5C
:1026800013850183938581516377B500232005006D
:102690001105E36DB5FEFD42739002BC8D4273904F
:1026A0004280930280087390023097E2FFFF93828A
:1026B000A29593E2320073905230EFF07FE59702DB
:1026C00000009382A2D67390123473002030B7F7C3
:1026D000FF1F03A5477082801C4141677917F98F5E
:1026E0001CC1232005002322050023240500B70771
:1026F000024023260500138787006316E500D843B0
:102700001367F70001A81387C7016317E500D843D3
:102710001367070FD8C3B1A8138707036318E50031
:10272000D8438566938606F0558FEDB71387470427
:102730006315E500D843BD66C5BF138787056316DB
:10274000E500D843B7060F00C5B71387C706631661
:10275000E500D843B706F000C1BF1387070863162A
:10276000E500D843B706000FC1B713874709E30850
:10277000E5F882801C4161773D0794517D8F9C452F
:10278000D58F9449D58FD449D58F944DD58FD44DBD
:10279000D58FD451D58F9455D58FD98F1CC1DC4599
:1027A0005CC19C411CC5DC415CC582801C4189C563
:1027B00093E717001CC1828041677917F98FDDBF4D
:1027C0005841032805004C45370601409307064051
:1027D0003E979346F8FFB1C583250640F58D23202B
:1027E000B640D043F18ED4C31443B3E6060114C3FC
:1027F000184190479346F7FF758E90C7D047F18EEA
:10280000D4C7144541466399C6009447D98E94C7EE
:10281000D447558FD8C78280B6979443558F98C3B5
:1028200082801C43F58F1CC38280B707014023AA16
:10283000A7408280B7076745372702409387371242
:102840005CC3B797EFCD9387B79A5CC38280372775
:1028500002401C4B93E707081CCB828037270240BD
:102860005C470545858B91E748474189133515003D
:102870000D058280EFD2DF8B2A848544C53763182B
:10288000950019E0154529A0D13F7D14CDBF7DD815
:102890006FD05F8CEFD2DF89AA8437051300D93F50
:1028A00091476313F502372402401C483705130093
:1028B00093E727001CC844C81C4893E707041CC8BA
:1028C000553F1C48F59B1CC86FD0DF88EFD25F8650
:1028D0004111AA8415652EC6713F9147B245631E0A
:1028E000F500372402401C48156593E717001CC803
:1028F0008EA049371C48F99B1CC841016FD09F85A9
:102900009C4513F7070113F8F70001C7D841336856
:10291000E80037270240145B3707000F758F4DEB37
:102920008546A38ED186371701406315E5009A21AD
:1029300035839AA18E2113F7F50F39C318418146CB
:10294000854E3D4F930F800293028004214E3396B3
:10295000DE00B3F8C5006311160393982600331305
:102960001F011343F3FF3377E300B318180133E774
:10297000E8006397F70750C98506E39AC6FD18C1BA
:102980001307F00F6375B70454412146854E3D4F40
:10299000930F800293028004414EB398CE0033F728
:1029A00015016392E8021317260001173313EF0095
:1029B0001343F3FFB376D3003317E800D98E639542
:1029C000F703232A15010506E319C6FD54C18280C9
:1029D00037170140E310E5F603C7D18721DF81BF38
:1029E000E39C57F810C949BFE39F57FC2328150102
:1029F000D9BFB71701406316F50083C7D18791C3CC
:102A0000B5810CC9828023A0A188828003A7018898
:102A1000854714216310F7021C31639CE7023C21B7
:102A2000960793E707F837E700E093F7F70F369735
:102A30002300F740054793D756003317D70054417A
:102A400089CE938707048A07B7E600E0B69798C354
:102A50008280EDF33C219607F9B793870706B7E626
:102A600000E08A07B69798C30F1000008280B7175E
:102A70000240D843B70640FFFD16758FD8C3D84330
:102A80005A05598DC8C38280371702405C4391466E
:102A9000B18B6385D700A1466382D706B7177A004A
:102AA000938707201CC1371602405C42370700207D
:102AB0001307C70D9183BD8BBA9794231C41B3D7DD
:102AC000D7005CC15442A1829D8ABA969422B3D6A3
:102AD000D70014C55442AD829D8A36971823B3D7C8
:102AE000E7005CC558423983937637001387C1816C
:102AF00036971823B3D7E7021CC982805C4358433A
:102B0000C166C983BD8B758F8907C5466393D7009E
:102B1000C94701EF3747024003270780418B09CFA0
:102B200037177A001307072021A8371702405843A8
:102B30009316E700E3D606FE37173D00130707900C
:102B4000B387E70285B799C5371702405C4B5D8DA7
:102B500048CB8280B7170240D84B1345F5FF798DDB
:102B6000C8CB828099C5371702401C4F5D8D08CFB6
:102B70008280B7170240984F1345F5FF798D88CFB3
:102B8000828099C5371702405C4F5D8D48CF8280A7
:102B9000B7170240D84F1345F5FF798DC8CF828013
:102BA00099C5371702405C475D8D48C78280B717CB
:102BB0000240D8471345F5FF798DC8C7828099C573
:102BC000371702401C4B5D8D08CB8280B71702403F
:102BD000984B1345F5FF798D88CB8280EFD24FD586
:102BE000B7370140938707C0631DF500056485452D
:102BF00013050480753781451305048055376FD060
:102C00006FD5B70700406319F50085450545453F79
:102C1000814505456D37E5B7938707406318F50093
:102C200085450945693F81450945EDB7B71700401E
:102C3000138707806318E5008545114549378145AD
:102C40001145C9BF938707C0E31BF5FA85452145A8
:102C5000BD37814521457DBF1E2137370140130710
:102C600007C0C207C1836300E50237070040630C59
:102C7000E500130707406308E50037170040130716
:102C800007806316E500BA2193F7F7F8D98FFA2188
:102C900093F7F7CFC207C183D98F1EA1DE215EB59E
:102CA0009E211EB5B7370140938707C06314F50016
:102CB0009C251EB985475EA982801E2189C593E7A0
:102CC00017001EA18280C207C183F99BC207C1837E
:102CD000CDBF5E2501C6DD8D4EA5828093C5F5FF73
:102CE000FD8DDDBF93C5F5FFC205C1810EA98280B0
:102CF000EFD20FC41A29F577FD17F98FFA210111C8
:102D00002A84D98F1EA99A25DE215625AE84D98F13
:102D1000BA25D98F7D771307379F758FD98F5EA519
:102D20005E29DA25C207C18393F7F7CFD98F5EA951
:102D30006800EFF07FD5B74701409387078063169F
:102D4000F404E2476545B335F502904081460A0632
:102D50003305F5024522930640063357D502120784
:102D600093574700B387F6021D8D931745001385CF
:102D700027039307F06363FCA700130507014205CF
:102D800041810AA405616FD0EFBCD24765BF3355BE
:102D9000D502598DEDB791C55E250967D98F5EA51E
:102DA00082805A25F977FD17F98FD5BF5E2901C6B4
:102DB000DD8D4EA9828093C5F5FFFD8DDDBF93F5B6
:102DC000F51F4EA182800A216D8D3335A0008280CF
:102DD00093C5F5FFC205C1810EA1828083A78181C1
:102DE00037177A0013070720B3D7E70293F7F70FD7
:102DF0002383F1881307803EB387E7022392F1888B
:102E00008280B7F700E0D8438146799BD8C303D7C7
:102E100041883306A70290CBD4CB984313670701B0
:102E200098C398431367170298C3D843058B75DF7F
:102E30009843799B98C38280EFD28FAF2A84116523
:102E4000011185451105EFF0FFD1930700207C8229
:102E5000371501408D473EC44C00E14713050580FE
:102E60003EC6EFF0FFA922C837440140B70708006B
:102E70000C08130504803ECC02CA231E0100EFF0AB
:102E80003FE7854513050480393705616FD08FAC66
:102E9000EFD26FA8B7440140AE89328901449384D0
:102EA0000480634524014A856FD02FAA930500044E
:102EB0002685EFF05FF17DD9B38789008385070010
:102EC00026850504C205C181EFF07FEFD9BF1387C6
:102ED00001821C43938681513E95636BD500B756A2
:102EE00000209386068063E5A60008C33E858280A5
:102EF000FD57EDBFB687B2882A832E88639B0614E0
:102F000063F8C50A4167636BE61AB707000163609F
:102F1000F63493568601E1471717000013074765FB
:102F200036971823BA97130700021D8F19CB3398D1
:102F3000E500B357F500B318E60033E80701331393
:102F4000E50013D608013355C80293960801C182E3
:102F5000935703013377C802B385A602420733684B
:102F6000F700637AB80046989307F5FF6364180189
:102F70006365B8303E853308B8403357C802420312
:102F8000135303013378C802B386E602420833685C
:102F90006800637BD80046989307F7FF63651801C4
:102FA00079176363D8003E874205598D8145828039
:102FB00001E60547B358C702416763E8E80EB70763
:102FC000000163EAF82893D68801E147171700004B
:102FD0001307075A36971423BE9693070002958F5E
:102FE000FDE7939E08013387154113DF080193DE47
:102FF0000E018545935703013355E7033377E70304
:10300000B306D5034207D98F63FAD700C6971307D3
:10301000F5FF63E4170163E5D7263A85958F33D72B
:10302000E703420313530301B3F7E703B30ED703D8
:10303000C207B3E7670063FBD701C6979306F7FFA4
:1030400063E51701791763E3D70136874205598D88
:10305000828063E1D504C16763E1F604B70700012C
:1030600063E3F61E13D78601614897170000938724
:103070002750BA979823130E00024297330EEE4062
:10308000631A0E0C63EDB61C3335C50013451500ED
:10309000814582808145014582809307F00F63F36B
:1030A000D71C13D786002148C9B71307F00FC6866F
:1030B000E37E17F193D68800A14709BF1307F00FED
:1030C000B286E37BC7E493568600A147B1B5B398B7
:1030D000F80033D6D50013DF0801335EE6033397DB
:1030E000F500B356D500558F939E080193DE0E016F
:1030F0003313F50093550701B376E603B387CE0388
:10310000C206CD8E63FBF600C6961306FEFF63E48F
:10311000161763F2F616791EC6969D8E33D6E60311
:1031200093170701C183B3F6E6033385CE021397E5
:1031300006015D8F637BA70046979307F6FF6368E0
:1031400017136376A7127916469793150E01098F08
:10315000D18D4DB5B357E600B396C601DD8E33D39E
:10316000E50013DF0601B357E303939E060193DEE8
:103170000E013398C5013357E500336807019358B2
:1031800008013316C6013373E303B385FE0242031D
:10319000B368130163FBB800B6981387F7FF63EABF
:1031A000D80C63F8B80CF917B698B388B84033D781
:1031B000E803420813580801B3F8E8033383EE022A
:1031C000C208B3E5080163FB6500B6951308F7FF75
:1031D00063EDD50863FB65087917B695C207416FA3
:1031E000D98F1307FFFFB3F6E70093D80701718F5C
:1031F0004182B38EE602B3856540B386C60213D81A
:103200000E013387E802BA96C2963386C80263F38A
:10321000E6007A9693D80601469663E2C502638576
:10322000C5003E858145828041677D17F98EC206C3
:10323000B3FEEE003315C501F696E374D5FE138593
:10324000F7FF8145828013D70601414839BD935667
:103250000601C147D1B193D60801C14785BB81455D
:10326000054582803687014809B5428785BF3E867D
:10327000E9BDBA871DBF328E4DB579154698E5B9BF
:103280007915C69761BB39713EDA2ED232D436D663
:103290003AD842DC46DE9387418222CC804326CA5C
:1032A00006CEAA8409C41C4C99E32285FD290C444E
:1032B00054102686228536C6EF009013F2406244F1
:1032C000D24421618280011126CA4AC806CE22CC8E
:1032D0004EC652C4AA842E8901C51C4D91E3F1212A
:1032E0009C4C804499E32685C92197170000938759
:1032F000273A631BF402C0405E24A18BB1C71C486F
:10330000A1C7FD59294A1C4483450900FD17B1E9AD
:103310001CC463DD07062286A94526856920FD5762
:103320006308F502294535A09717000093874738B1
:103330006314F4008044C9B797170000938747339C
:10334000E31CF4FAC0444DBFA2852685192A55D93D
:103350007D55F2406244D2444249B249224A056155
:1033600082801CC4050963D70700184C63CAE700B4
:10337000638845011C401387170018C08CA361B7F0
:10338000228626850D20E31035F9D9B71C40138716
:10339000170018C0294798A371B793874182AA855F
:1033A00088436FF05FF2011122CC26CA4AC806CECC
:1033B0004EC6AA842E89328401C51C4D91E3F526A0
:1033C000971700009387C72C6317F406C0401C4C66
:1033D0001CC45E24A18BC1C31C48B5CF1C48084047
:1033E0009379F90F1379F90F1D8D5C486346F50049
:1033F000A2852685692C25E51C440505FD171CC4FE
:103400001C401387170018C0238037015C4863886D
:10341000A7005E24858B81CBA9476316F900A2859E
:103420002685B5240DEDF24062444A85D2444249D6
:10343000B24905618280971700009387672763145C
:10344000F400804469B79717000093876722E31060
:10345000F4F8C044ADBFA2852685212041D17D5915
:10346000D9B741119387418226C2844322C44AC0FE
:1034700006C62A892E8489C49C4C99E32685352664
:10348000971700009387C720631BF402C0400317FF
:10349000C40093170701C18393F68700ADEA93F642
:1034A000070195EEA5472320F900136707045AA4E6
:1034B0007D55B240224492440249410182809717CF
:1034C00000009387E71E6314F4008044C9B7971780
:1034D00000009387E719E31CF4FAC0444DBF918BB9
:1034E0009DC34C5889C9930744046384F5004A85F9
:1034F000292B232A04025E242322040093F7B7FD1C
:103500005EA41C481CC05E2493E787005EA41C4890
:1035100099EB5E241307002093F707286385E700E3
:10352000A2854A8591295E2413F717001DC35C48C4
:1035300023240400B307F0401CCC1C480145B5FB14
:103540008317C40013F707082DD793E707045EA479
:1035500085B7898B014791E3584818C4F9BFDE2528
:10356000011122CC26CA06CE4AC84EC613F78700E0
:10357000AA842E8479EBD841634DE000B841634AB8
:10358000E0000145F2406244D2444249B24905613B
:10359000828058547DD703A904009396370123A055
:1035A000040063DB060670485E24918B99C75C407B
:1035B0001D8E5C5899C33C401D8E5C540C50814656
:1035C00026858297FD575A24631DF5009440F547E0
:1035D00063E8D706B70740208507B3D7D700858BA8
:1035E000A5C31C48232204001CC09317370163D8CD
:1035F0000700FD576314F5009C4091E368C84C58E0
:1036000023A02401BDDD930744046384F5002685CF
:10361000ED2E232A0402B5B70C50014685462685B7
:103620000297FD572A86E311F5F89C40B5DF7547F0
:103630006385E70059476393E70423A0240191B70A
:10364000136707045AA47D5535BF83A90501E38A92
:1036500009F203A905008D8B23A0350133093941F7
:10366000014791E3D84918C4E35D20F11C540C5084
:10367000CA864E86268582976347A0005E2493E71C
:1036800007045EA4C9B7AA993309A940F1BF9C49B0
:10369000A5C3011122CC06CE2A8411C51C4D81E799
:1036A0002EC62122B24597170000938767FE639CC0
:1036B000F5004C408397C5009DC722856244F240C7
:1036C00005616FF0DFE997170000938767FE639449
:1036D000F5000C44C5B797170000938767F9E39B83
:1036E000F5FC4C44C1BFF240624401450561828053
:1036F00001458280411122C406C62A844EA572A5C6
:10370000232005002322050023240500232205068B
:1037100023280500232A0500232C05002146814586
:103720001305C505EFC0DFA397170000938787B285
:103730005CD0971700009387A7B41CD4971700009C
:10374000938787B85CD4971700009387E7BA00D0B7
:103750001CD8B24022444101828097050000938525
:1037600045F391AA411126C2130680069384F5FF02
:10377000B384C4024AC02E8922C406C69385440776
:103780000D2E2A8401CD2320050023222501310599
:1037900008C4138684068145EFC09F9C2285B240F1
:1037A000224492440249410182801C4DA5E7411107
:1037B00006C622C497070000938767FA1CD5938733
:1037C000C1829C43232405042326050423280504E1
:1037D0006314F50085471CCD2A84352848C022850E
:1037E0001D2808C42285052848C448400146914543
:1037F000EFF05FF008440546A545EFF0BFEF484401
:103800000946C945EFF01FEF85471CCCB240224462
:1038100041018280828041119387C18226C2844304
:103820004AC006C69C4C22C42A8981E72685EFF04F
:10383000DFF7938484048044DC40FD1763D60700DF
:103840009C40B9CF8440C5BF0317C40039E7C17796
:1038500085072322040623200400232204002324B6
:1038600004005CC423280400232A0400232C040041
:10387000214681451305C405EFC09F8E232A04020B
:10388000232C040223240404232604042285B240AA
:10389000224492440249410182801304840671BF8C
:1038A00091454A85EFF01FEC88C049FDB1472320C0
:1038B000F9000144E1BF797122D44AD052CC56CAF2
:1038C0005AC85EC606D626D24ECE2A8AAE8A1304BF
:1038D00085040149054BFD5B09ECB25022544A8531
:1038E00092540259F249624AD24A424BB24B456164
:1038F0008280044483294400FD1963D409000040F8
:10390000E1BFDE24637BFB008397E40063877701DC
:10391000A6855285829A3369A90093848406E9BFFB
:103920001971A6DAAE848395E500A2DC86DE3284C6
:1039300063DB0500DE2423A0060093F7070885E774
:10394000930700401DA0300836C6EF007020B24635
:10395000E34205FE7247BD67F98F7977BA9793B74F
:1039600017009CC2F1BF930700041CC0F6506654B8
:10397000D654014509618280DE25011122CC06CE94
:1039800026CA4AC8898B2E8489CF930774041CC029
:103990001CC885475CC8F2406244D2444249056174
:1039A000828074003000AA84EFF09FF7A2452A8934
:1039B0002685012219E98317C40013F7072061FF48
:1039C000F19B93E727005EA4C9B797070000938790
:1039D00007D99CD45E2408C008C893E707085EA4F2
:1039E000A2475CC8B24781CF8315E4002685EF006B
:1039F000D01811C55E24F19B93E717005EA45E24E6
:103A00003369F9002316240179B7DDC183A7C5FF07
:103A1000411122C406C626C21384C5FF63D3070022
:103A20003E94AA84EF00301C938781889C4381EFE9
:103A30002322040023A481882244B2402685924494
:103A400041016F00701A637EF40014403307D40004
:103A50006396E7009843DC43369718C05CC0D9BF33
:103A6000BA87D84319C3E37DE4FE94433386D70075
:103A7000631F86001040B29694C33386D700E31DBF
:103A8000C7FA10435843B29694C3D8C375B7637549
:103A9000C400B1479CC04DB71040B306C4006316C4
:103AA000D70014435843B29614C058C0C0C369B776
:103AB0008280011126CA93843500F19806CE22CC6B
:103AC0004AC84EC6A104B14763F3F404B14463E2AB
:103AD000B4042A89EF0030119387818898433A848F
:103AE00039E09387C1889C4391E781454A85252F1A
:103AF00023A6A188A6854A853D27FD596319350768
:103B0000B1472320F9004A85EF00100E29A0E3D029
:103B100004FCB1471CC10145F2406244D244424911
:103B2000B249056182801C40858F63CF0702AD4694
:103B300063F6F6001CC03E9404C031A05C406313E1
:103B4000870223A4F1884A85EF00100A1305B40008
:103B50009307440061993307F5405DDF3A94898FFC
:103B60001CC05DBF5CC3C5B72287404095BF13042E
:103B700035007198E30285FCB305A4404A856525AC
:103B8000E31C35FBB5BF1C46FD171CC663DA0700F6
:103B9000184E63C5E700A9476394F5006FF0BF8036
:103BA0001C422E851387170018C28CA38280011136
:103BB00022CC26CA4AC84EC652C406CE2A89AE892D
:103BC0003284B304D6007D5A63149400014509A8D9
:103BD0000C204E864A85EFF01FFB0504E31645FFD7
:103BE000F2406244D2444249B249224A056182808D
:103BF000357122CD26CB4AC94EC706CF52C556C312
:103C00005AC1DEDEE2DCE6DAAA89AE843289368485
:103C100009C51C4D99E3EFF05FB997170000938732
:103C200027A76398F40C83A44900DE24A18BE5C781
:103C30009C48F5C393070002A304F1029307000315
:103C400002D22305F10222C6930B5002971A0000FC
:103C5000938A0AA8054C294B4A841C2099C3639F68
:103C6000770DB30C2441638E0C00E6864A86A68548
:103C70004E85EFF0DFF3FD57630FF51C9256E69685
:103C800036D21C206389071CFD571309140002C893
:103C900002CE3ECA02CCA309010482D483450900A6
:103CA000154656852D2713041900C24751E913F70D
:103CB000070109C713070002A309E10413F78700EE
:103CC00009C71307B002A309E104834609001307DB
:103CD000A002638FE606F2474A84814625461820F3
:103CE00093051400130707FD6377E60AB5CA3ECEB5
:103CF00085A8971700009387A79B6395F40083A47A
:103D0000890025B79717000093878796E39FF4F003
:103D100083A4C90019BFA6854E85EFF08FF419D989
:103D20007D55FA406A44DA444A49BA492A4A9A4ACD
:103D30000A4BF65B665CD65C0D618280050431BF80
:103D4000330555413315AC00C98F3EC82289B9B738
:103D5000324793064700184336C6634707023ACEF8
:103D600018209307E002631DF70418309307A002A0
:103D7000631BF702B2470904138747009C433AC606
:103D800063C107023ECA2DA83307E04093E727002E
:103D90003ACE3EC8F1B7B387670385462E84BA97FB
:103DA0003DBFFD57C5B7050402CA81468147254678
:103DB000182093051400130707FD6374E606F9F253
:103DC0000C200D461715000013050591092511CD8E
:103DD00097170000938747901D8D93070004B397B2
:103DE000A700424505045D8D2AC80C201946171509
:103DF00000001305A58E130914002304B102C12B82
:103E000035C197C7FFFF9387E71F95E74247B24742
:103E10001377071009CF91073EC69257D2973ED22B
:103E200025BDB387670385462E84BA9751B79D0792
:103E3000E19BA107D5B7780097060000938666D767
:103E400026860C084E8597000000E7000000FD570D
:103E50002A8AE314F5FCDE2493F70704E39207ECC7
:103E60001255C1B5780097060000938686D4268641
:103E70000C084E85012AE1BF797156CA9C49BA8A5D
:103E8000984522D426D24ECE52CC06D64AD05AC815
:103E90005EC6AA892E84B284368A63D3E700BA87C5
:103EA0009CC00347340419C385079CC01C4093F78A
:103EB000070281C79C4089079CC00329040013792D
:103EC0006900631A0900130B9401FD5B5C44984080
:103ED000998F634CF9041C408346340493F707021E
:103EE000B336D000A5EB13063404D2854E85829AF2
:103EF000FD576303F5041C4011469840998B5444C8
:103F000081446397C700B384E64063D304008144CF
:103F10001C4418486354F700998FBE940149690402
:103F20007D5B63982405014509A885465A86D2859C
:103F30004E85829A631E75017D55B250225492546B
:103F40000259F249624AD24A424BB24B45618280E1
:103F50000509ADBF3307D40013060003A301C7044E
:103F60000347540493871600A2978906A381E704A8
:103F70009DBF85462286D2854E85829AE30E65FBDB
:103F8000050945B7797122D426D24AD04ECE06D63D
:103F900052CC56CA5AC8B689942D930790063289D6
:103FA000AA842E8413863504638DF60263E2D70655
:103FB000930780056386F61863EDD700638E0620AD
:103FC00093073004638EF60A930A24042301D40471
:103FD000C9A0930730066385F60A93074006E39568
:103FE000F6FE1C40084393F6070893054500C5C636
:103FF0001C410CC363D807001307D002B307F0407D
:10400000A301E404970600009386C66D294765A8BE
:10401000930700076382F61663E5D7029307E0066D
:104020006389F6189307F006E390F6FA0C401C43F8
:1040300013F80508138547006307080608C39C4367
:1040400085A893075007E383F6FE930780076389EB
:10405000F61293073007E399F6F61C43D0418145E9
:104060009386470014C383AA070056858D2601C591
:104070003305554148C05C401CC8A301040461A835
:104080001C43930A2404938647009C4314C32301D2
:10409000F4048547D5B793F607041C410CC3B9DA7D
:1040A000C207C18781BF93F5050408C3C9D99E2300
:1040B0001307F0066387E60E970600009386866274
:1040C0002947A30104044C400CC463C50500084003
:1040D0006D9908C099E3B28A89CDB28AB3F5E70237
:1040E000FD1AB6958C212380BA00B3D5E70263F0A0
:1040F000E70CA147631EF7001C40858B91CB58400D
:104100001C4863C7E70093070003A38FFAFEFD1A5C
:104110003306564110C84E87CA867000A285268590
:10412000EFF09FD57D5A631D450B7D55B25022544B
:1041300092540259F249624AD24A424B4561828006
:10414000A382D504970600009386C6590C40084305
:1041500013F805081C411105630D080208C313F785
:10416000150001C793E505020CC04147B9FB0C409F
:1041700093F5F5FD0CC0B1B79C4193E707029CC1D4
:1041800093078007A302F404970600009386C6569F
:1041900075BF13F8050408C3E30308FCC207C18315
:1041A0007DBF970600009386E653214719BFAE876F
:1041B00035B794411C43CC4913F8060813854700D2
:1041C0006306080008C39C438CC339A008C393F658
:1041D00006049C43F5DA8EA323280400B28A25BF87
:1041E00014485686CA8526858299E30045F51C4009
:1041F000898B8DE7B2474844E35AF5F23E853DB7D7
:1042000085465686CA8526858299E30065F3050AA8
:104210005C443247998FE345FAFEE9BF014A930AAD
:1042200094017D5BF5B7411122C42A842E8523AA0F
:10423000015006C6EFE0BFC9FD576317F50093872D
:1042400041519C4391C31CC0B24022444101828031
:10425000411122C42E848395E50006C67922634964
:1042600005007C48AA977CC8B24022444101828064
:104270005E247D777D17F98F5EA4FDB7DE250111E1
:1042800022CC26CA4AC84EC606CE93F70710AA8487
:104290002E843289B68991C78395E5008946014607
:1042A00009225E247D777D17F98F5EA48315E400D3
:1042B0006244F240CE864A86B24942492685D244BB
:1042C000056125A8411122C42E848395E50006C608
:1042D000C928FD575A24631AF500FD77FD17F98F99
:1042E0005EA4B2402244410182808567D98F5EA4DA
:1042F00068C8C5BF8395E50005A8411122C42A847A
:104300002E85B285368623AA015006C6EFE05FB837
:10431000FD576317F500938741519C4391C31CC01F
:10432000B240224441018280411122C42A842E8558
:1043300023AA015006C6C520FD576317F5009387D1
:1043400041519C4391C31CC0B24022444101828030
:10435000411122C42A842E85B28523AA015006C6A3
:10436000C920FD576317F500938741519C4391C3C2
:104370001CC0B240224441018280411122C42A84DF
:104380002E8523AA015006C65D20FD576317F50050
:10439000938741519C4391C31CC0B24022444101C8
:1043A0008280411122C42A842E85B285368623AAB2
:1043B000015006C65920FD576317F50093874151F8
:1043C0009C4391C31CC0B24022444101828093F5BA
:1043D000F50F2A966314C500014582801C21E38EE7
:1043E000B7FE0505C5BF82808280411122C42A84A0
:1043F0002E85B285368623AA015006C6A920FD5710
:104400006317F500938741519C4391C31CC0B24090
:104410002244410182809307800523AAF1507D55F3
:1044200082809307800523AAF1507D5582809307EF
:10443000800523AAF150014582809307800523AAB5
:10444000F1507D5582809307800523AAF1507D5558
:104450008280000075736220656E746572206C6FD7
:104460007720706F776572206D6F64650D000000B6
:10447000757362206C65617665206C6F7720706F54
:10448000776572206D6F64650D00000009024300BE
:10449000020100803209040000010202010005242B
:1044A0000010010524010001042402020524060075
:1044B000010705810340000109040100020A000010
:1044C00000070502024000000705830240000000CB
:1044D0001201100102000040861A0CFE00010102C8
:1044E000030100002803580042004F00580020003C
:1044F0004F0054004100200042006F006F00740024
:104500006C006F0061006400650072000A035800CF
:1045100042004F0058000000B81B0000CA1B0000FA
:10452000DA1B0000E21B0000F81B0000161C000054
:1045300055305F4F3A2530386C780A0053797374E0
:10454000656D436C6B3A25640D0A00004368697021
:1045500049443A253038780D0A000000555342444A
:104560002058424F582044656D6F0D000001020233
:1045700003030303040404040404040405050505FB
:1045800005050505050505050505050506060606D7
:1045900006060606060606060606060606060606BB
:1045A00006060606060606060606060607070707A7
:1045B000070707070707070707070707070707078B
:1045C000070707070707070707070707070707077B
:1045D000070707070707070707070707070707076B
:1045E0000707070707070707070707070808080857
:1045F000080808080808080808080808080808083B
:10460000080808080808080808080808080808082A
:10461000080808080808080808080808080808081A
:10462000080808080808080808080808080808080A
:1046300008080808080808080808080808080808FA
:1046400008080808080808080808080808080808EA
:1046500008080808080808080808080808080808DA
:1046600008080808080808080808080800000000EA
:10467000000000000000000000000000000000003A
:10468000000000000000000000000000000000002A
:10469000000000000000000000000000000000001A
:1046A000000000000000000000000000000000000A
:1046B00000000000000000000000000000000000FA
:1046C000000000000000000000000000232D302B3F
:1046D00020000000686C4C00656667454647000096
:1046E0003031323334353637383941424344454628
:1046F00000000000303132333435363738396162EA
:0847000063646566000000001F
:104708001E03580042004F0058002D004F0054006F
:1047180041002D0031003200330034003500000024
:1047280096130000900A00005C140000900A000034
:10473800900A0000900A0000900A0000900A000009
:1047480098130000900A0000900A0000900A0000E8
:10475800900A0000900A000082170000DE1700008F
:10476800581700007E1A0000E616000030170000F7
:10477800BA160000321A0000421A0000561A000049
:104788000000000040000000780100200400000044
:104798000C4500000A000000E44400002800000066
:1047A800000000201E000000900A0000A216000071
:1047B800900A0000900A0000900A0000801A000089
:1047C800900A0000B8160000B016000000000000B3
:1047D80000000000010203040607080900000000A9
:1047E800010203040102030406070809000000008F
:1047F8008C460000AC4600006C460000000000003B
:1048080000000000000000000000000000000000A0
:104818000000000000000000000000000000000090
:104828000000000000000000000000000000000080
:104838000000000000000000000000000000000070
:104848000000000000000000000000000000000060
:104858008C44000043000000D04400001200000017
:104868000F0100000100000000D8B8050204060886
:10487800680E0020EC00002004030904EC0000206E
:00000001FF
